{
  "contractName": "BinaryHash",
  "abi": [
    {
      "anonymous": false,
      "inputs": [
        {
          "indexed": false,
          "internalType": "string",
          "name": "input",
          "type": "string"
        },
        {
          "indexed": false,
          "internalType": "bytes32",
          "name": "hash",
          "type": "bytes32"
        }
      ],
      "name": "HashComputed",
      "type": "event"
    },
    {
      "inputs": [
        {
          "internalType": "string",
          "name": "inputData",
          "type": "string"
        }
      ],
      "name": "computeHash",
      "outputs": [],
      "stateMutability": "nonpayable",
      "type": "function"
    },
    {
      "inputs": [],
      "name": "computedHash",
      "outputs": [
        {
          "internalType": "bytes32",
          "name": "",
          "type": "bytes32"
        }
      ],
      "stateMutability": "view",
      "type": "function",
      "constant": true
    }
  ],
  "bytecode": "0x608060405234801561001057600080fd5b50610248806100206000396000f3fe608060405234801561001057600080fd5b5060043610610052577c01000000000000000000000000000000000000000000000000000000006000350463223c2a3181146100575780633aefaa7514610075575b600080fd5b61005f61008a565b60405161006c919061017f565b60405180910390f35b6100886100833660046100de565b610090565b005b60005490565b8051602082012060008190556040518291907fee48f7244c2489d08ac6f60e7c53b8f961a4a823c757292592ac97044f5afb12906100d19084908490610188565b60405180910390a1505050565b600060208083850312156100f0578182fd5b823567ffffffffffffffff80821115610107578384fd5b818501915085601f83011261011a578384fd5b81358181111561012c5761012c6101e3565b604051601f8201601f191681018501838111828210171561014f5761014f6101e3565b6040528181528382018501881015610165578586fd5b818585018683013790810190930193909352509392505050565b90815260200190565b6000604082528351806040840152815b818110156101b55760208187018101516060868401015201610198565b818111156101c65782606083860101525b50602083019390935250601f91909101601f191601606001919050565b7f4e487b7100000000000000000000000000000000000000000000000000000000600052604160045260246000fdfea2646970667358221220551d1f17ec5bb0c395603b1f2ae1d451bd31f47eeb85c6cfa38a3fc62bc4273664736f6c63430008000033",
  "immutableReferences": {},
  "source": "// SPDX-License-Identifier: MIT\r\npragma solidity ^0.8.0;\r\n\r\ncontract BinaryHash {\r\n    bytes32 private lastComputedHash;\r\n \r\n    event HashComputed(string input, bytes32 hash);\r\n\r\n    // Function to compute hash from a string input\r\n    function computeHash(string memory inputData) public {\r\n        bytes memory inputBytes = bytes(inputData);\r\n        bytes32 hash = keccak256(inputBytes);\r\n        lastComputedHash = hash;\r\n        emit HashComputed(inputData, hash);\r\n    }\r\n\r\n    // Function to get the last computed hash\r\n    function computedHash() public view returns (bytes32) {\r\n        return lastComputedHash;\r\n    }\r\n}\r\n",
  "sourcePath": "C:\\Users\\dsoha\\kk\\Interaction-main\\contracts\\hash.sol",
  "compiler": {
    "name": "solc",
    "version": "0.8.0+commit.c7dfd78e.Emscripten.clang"
  },
  "schemaVersion": "3.4.16",
  "updatedAt": "2024-08-03T14:19:46.604Z",
  "networkType": "ethereum",
  "devdoc": {
    "kind": "dev",
    "methods": {},
    "version": 1
  },
  "userdoc": {
    "kind": "user",
    "methods": {},
    "version": 1
  }
}